:1000000069C200008DC200008BC2000089C20000DE
:1000100087C2000085C2000083C2000081C20000C8
:100020007FC200007DC200007BC2000079C20000D8
:1000300077C2000075C2000073C2000071C20000E8
:100040006FC200006DC200006BC2000069C20000F8
:1000500067C2000065C2000063C2000061C2000008
:100060005FC200005DC200005BC2000059C2000018
:1000700057C2000055C2000053C2000051C2000028
:100080004FC200004DC200004BC2000049C2000038
:1000900047C2000045C2000043C2000041C2000048
:1000A0003FC200003DC200003BC2000039C2000058
:1000B00037C2000035C2000033C2000031C2000068
:1000C0002FC200002DC200002BC2000029C2000078
:1000D00027C2000025C2000023C2000021C2000088
:1000E0001FC200001DC200001BC2000019C2000098
:1000F00017C2000015C2000013C2000011C20000A8
:100100000FC200000DC200000C94200B0C94780B61
:1001100007C2000005C2000003C2000001C20000C7
:10012000FFC10000FDC10000FBC10000F9C10000DB
:10013000F7C10000F5C10000F3C10000F1C10000EB
:10014000EFC10000EDC10000EBC10000E9C10000FB
:10015000E7C10000E5C10000E3C10000E1C100000B
:10016000DFC10000DDC10000DBC10000D9C100001B
:10017000D7C10000D5C10000D3C10000D1C100002B
:10018000CFC10000CDC10000CBC10000C9C100003B
:100190000C94C80AC5C10000C3C10000C1C1000061
:1001A000BFC10000BDC10000BBC10000B9C100005B
:1001B000B7C10000B5C10000B3C10000B1C100006B
:1001C000AFC10000ADC10000ABC10000A9C100007B
:1001D000A7C10000A5C10000A3C10000A1C100008B
:1001E0009FC100009DC100009BC1000099C100009B
:1001F00097C1000095C1000093C10000FF7E3C182C
:10020000183C7EFF0000000000000020202020207D
:100210000020505050000000005050F850F850504E
:100220002078A07028F020C0C81020409818609056
:10023000A040A890686020400000000010204040CE
:1002400040201040201010102040005020F8205076
:1002500000002020F8202000000000006020400066
:100260000000F800000000000000006060000810BE
:1002700020408000708898A8C888702060202020C6
:100280002070708808102040F8F81020100888703E
:1002900010305090F81010F880F008088870304046
:1002A00080F0888870F8081020404040708888707E
:1002B00088887070888878081060006060006060CE
:1002C00000006060006020400810204020100800FE
:1002D00000F800F80000804020102040807088085E
:1002E0001020002070880868A8A87070888888F896
:1002F0008888F08888F08888F0708880808088708E
:10030000E09088888890E0F88080F08080F8F8801D
:1003100080E080808070888080988870888888F8E5
:1003200088888870202020202070381010101090AD
:10033000608890A0C0A09088808080808080F888AD
:10034000D8A8888888888888C8A898888870888865
:1003500088888870F08888F080808070888888A875
:100360009068F08888F0A09088788080700808F005
:10037000F820202020202088888888888870888815
:100380008888885020888888A8A8D888888850209D
:1003900050888888885020202020F808102040802D
:1003A000F83820202020203800804020100800E06D
:1003B0002020202020E020508800000000000000C5
:1003C000000000F8402010000000000000700878D5
:1003D00088788080B0C88888F0000070808088703D
:1003E0000808689888887800007088F8807030481D
:1003F00040E0404040000078887808308080B0C8F5
:100400008888882000602020207010003010109014
:1004100060404048506050486020202020207000FC
:1004200000D0A8A888880000B0C88888880000701C
:10043000888888700000F088F080800000689878D4
:1004400008080000B0C8808080000070807008F04C
:100450004040E040404830000088888898680000AC
:10046000888888502000008888A8A85000008850FC
:10047000205088000088887808700000F81020401C
:10048000F810202040202010202020202020204074
:10049000202010202040537472696E67203400536E
:1004A0007472696E67203300537472696E6720320C
:1004B00000537472696E67004E756D6265727332B7
:1004C0003A004E756D626572733A00537472696ECC
:1004D00067733A0011241FBECFEFCDBFDFE3DEBF4D
:1004E00000E00CBF18BE19BE1ABE1BBE10E2A0E091
:1004F000B0E2EAE8FFE100E00BBF02C007900D9216
:10050000A033B107D9F71BBE22E2A0E3B0E201C0DD
:100510001D92A334B207E1F70E94310C0C94C30F73
:100520006FCD0F93662339F0FC01448560E080E0D5
:1005300090E274D507C000E028E044E0FC01648547
:1005400080E052D50F910895DF92EF92FF920F93C2
:100550001F93CF93DF93CDB7DEB76897CDBFDEBFD4
:10056000182FD62E00E027E040E868E180E03CD577
:100570008FE49BE4A0E08B839C83AD839E012E5F80
:100580003F4FAE014F5F5F4F6AE070E2CE010396CE
:100590008ED3898140E850E0481B51099A0112F43A
:1005A0002F5F3F4F7901F594E7941123C1F02AE0C2
:1005B00030E248E16E2DCE01039621D3DD2039F0E3
:1005C0006CEF6E0D48E180E090E228D50FC000E0AE
:1005D00028E044E068E18CEF8E0D06D507C000E00E
:1005E00027E044E168E18CEF8E0DFED46896CDBF24
:1005F000DEBFDF91CF911F910F91FF90EF90DF90C1
:100600000895CF92DF92EF92FF920F931F93CF93B3
:10061000DF93CDB7DEB72997CDBFDEBF7C01662360
:1006200081F000E027E040E8DC011C966C9180E05E
:10063000DBD42AE030E2F701448565E080819181D6
:1006400007D3D7011D968C911D97882339F01C96EE
:100650004C916CE785E090E2E1D407C000E028E02F
:1006600044E0F70164858CE7BFD4D70112968C91E2
:100670001297813039F514968C9114978F931396B5
:100680008C918F938CE290E29F938F931F9289E0DD
:100690008F93FE0131966F01FF93EF930E94D00C70
:1006A00000E027E042E3D7011C966C918AE49CD4D9
:1006B0002AE030E2F70144856AE4C601A0D2CDBF4A
:1006C000DEBF20C081111EC0D70115961C91159761
:1006D00000E027E042E31C966C918AE485D4E12F88
:1006E000F0E0EE0FFF1FD70113968D919C911497A8
:1006F000E80FF91F2AE030E21C964C916AE48081F1
:100700009181A6D22996CDBFDEBFDF91CF911F91F7
:100710000F91FF90EF90DF90CF900895CF92EF92DE
:10072000FF920F931F93FC014083518362830087E4
:100730001187E286F386C4861586068317836111C6
:1007400004C023833483058302C0038314831F9171
:100750000F91FF90EF90CF900895FC0110861582C5
:10076000148281E081870895CF93DF93EC01DB0150
:1007700014969C911497933038F5990F990F990F0F
:100780009C8714962C911497211104C0CD93DC936F
:10079000119710C0ED91FC911197223038F091E043
:1007A0000684F785E02D9F5F9213FACFC687D7871F
:1007B000E88BF98B1296CD93DC93139714968C915A
:1007C00014978F5F14968C93DF91CF910895EF92D9
:1007D000FF920F931F93CF937C0100E020E240E84B
:1007E00060E080E001D4F70184818823B1F00081CA
:1007F0001181C0E061E0C80104DFF80106851785BA
:10080000CF5FF7019481C917A8F360E081E09CDE17
:1008100061E0F7018081918184DECF911F910F917A
:10082000FF90EF900895CF93DF93EC016D3009F4C2
:1008300062C020F4683009F480C092C0663279F159
:10084000683209F08DC08D85882309F48CC08A81B7
:10085000813081F48B819C8128853985281739075F
:1008600024F401978B839C8314C08A859B858B839A
:100870009C830FC081110DC08D81482F50E02885C9
:100880003985241735071CF481508D8302C08A8571
:100890008D8360E0CE01B5DE8FEF90E069C08D857D
:1008A000882309F463C08A81813081F48B819C8123
:1008B0002A853B858217930724F401968B839C83BA
:1008C00014C0888599858B839C830FC081110DC0CE
:1008D0008D81482F50E02A853B85421753071CF431
:1008E0008F5F8D8302C088858D8360E0CE0189DEB5
:1008F0008FEF90E03DC08D858823B9F08A818130EB
:1009000049F41D8660E0CE017CDE8B819C818E8364
:100910009F832EC0811111C01D8660E0CE0171DE63
:100920008D8190E08E839F8323C081E08D8760E07E
:10093000CE0167DE8FEF90E01BC01D868A8181307B
:1009400029F48E819F818B839C8304C0811102C016
:100950008E818D8360E0CE0154DE8EEF90E008C082
:100960008FEF90E005C08FEF90E002C08FEF90E036
:10097000DF91CF910895EF92FF920F931F93CF9342
:10098000DF93EC018C81882309F4CAC08985882310
:1009900051F1A881B98190E012968C911297813023
:1009A00069F413962D913C911497E92FF0E0EE0F26
:1009B000FF1FE40FF51F208331830CC0E92FF0E007
:1009C000EE0FFF1FE40FF51F15962C91159730E0E1
:1009D000208331831E960D90BC91A02D9F5F8C814A
:1009E0009817D0F21986088119812D818FEF820F17
:1009F0008E3F38F490E0F801068517859F5F9213CB
:100A0000FACF7A0188858823E1F0C8010CDF8E8354
:100A10009F838E3F910521F418868FEF90E08BC065
:100A20008F3F910509F47FC04D8150E0440F551F61
:100A3000F701E40FF51F8083918318868FEF90E014
:100A40007AC06D3009F462C020F4683009F46EC0D9
:100A500004C0663289F1683219F08FEF90E06BC004
:100A60002F3F51F41D8260E081E06EDD61E0C8013E
:100A700058DD8FEF90E05FC030E08C8190E001970F
:100A80002817390774F460E0C8014BDD8D818F5F52
:100A90008D8361E0F8018685978543DD8FEF90E0D7
:100AA0004AC060E0C8013DDD8FEF8D8361E081E0E9
:100AB0004BDD8FEF90E03FC02F3F69F460E081E0B5
:100AC00043DD8C8181508D8361E08A819B8129DDAA
:100AD0008FEF90E030C0222371F060E0C80121DD8B
:100AE0008D8181508D8361E0F8018089918919DDC4
:100AF0008FEF90E020C060E0C80113DD8FEF8D83A1
:100B000061E081E021DD8FEF90E015C02F3F89F09B
:100B10006DE0C80188DE81E088878FEF90E00BC030
:100B20008EEF90E008C08FEF90E005C08EEF90E070
:100B300002C08DEF90E0DF91CF911F910F91FF9058
:100B4000EF900895AF92BF92CF92DF92EF92FF9213
:100B50000F931F93CF93DF93C82FE62EB42E690116
:100B600000E0F901248143816B2D8E2D3DD2F601E9
:100B70008081811139C08381282F2695269526955D
:100B8000877009F02F5FF601A4802A9D900111243F
:100B90008C2F90E04581841B9109289FA001299FFB
:100BA000500D389F500D112401811281040F151F23
:100BB000F601F380FF20A1F0D0E0C0E08C2F8E0D75
:100BC0009C2F977021F4F801D4910F5F1F4FDD2304
:100BD0001CF441E06B2D6DD3DD0FCF5FCF11EECF55
:100BE000B394AA94A110E4CFDF91CF911F910F91FC
:100BF000FF90EF90DF90CF90BF90AF900895DF927D
:100C0000EF92FF920F931F93CF93DF93042F7901FD
:100C1000EC01162FD62E89918A3031F4F7018481A8
:100C20008F5F080F1D2D09C08D3039F09701402FBF
:100C3000612F88DFF7018381180F88818111EBCF45
:100C4000DF91CF911F910F91FF90EF90DF9008956A
:100C5000DF92EF92FF920F931F93CF93DF93EC01FC
:100C6000042F7901FC019491892F9923C1F0162F4B
:100C7000D62E8A3031F4F70184818F5F080F1D2D45
:100C800009C08D3039F09701402F612F5BDFF701EC
:100C90008381180F2196FE0184918111EACFDF91A3
:100CA000CF911F910F91FF90EF90DF900895CF9318
:100CB000DF93FB01EA01D90173816481FC01562FA6
:100CC00090E031E081918A3019F4560F90E006C02F
:100CD0008D3021F0970F391708F4392F8081811159
:100CE000F1CF38835C93DF91CF9108951F93CF9319
:100CF000DF931F92CDB7DEB7182F88E18983BE013D
:100D00006F5F7F4F80EC98E087D381E08093260768
:100D10001093C30880E090E0019685339105E1F7D8
:100D2000BE016F5F7F4F80EC98E08CD30F90DF9116
:100D3000CF911F910895CF92DF92EF92FF920F9380
:100D40001F93CF93DF931F92CDB7DEB788E08093D8
:100D5000260780E090E0019685339105E1F788E071
:100D60008093250780E090E0019685339105E1F7B7
:100D700088E1898380EC98E005D3C12CD12C7601E1
:100D800000E412E42FE030E040E0BE016F5F7F4FEF
:100D900080EC98E023D3E0ECF8E0808180648083ED
:100DA00088EAA4DF8FE1A2DF83EDA0DF80E09EDF91
:100DB00080E49CDF81EA9ADF88EC98DF8AED96DF99
:100DC00082E094DF81E892DF8FE890DF84EA8EDFB3
:100DD00086EA8CDF85ED8ADF80E888DF8DE886DFB4
:100DE00084E184DF8BED82DF80E480DF89ED7EDFCC
:100DF00081EF7CDF8FEA7ADF0F90DF91CF911F9137
:100E00000F91FF90EF90DF90CF900895CF93DF93F5
:100E10001F921F92CDB7DEB78FEF80937000809343
:100E200071008093720080937300809374008093AC
:100E30007500809376008FB78983F8949981E0E5F7
:100E4000F0E08081826080839FBF818181FFFDCF40
:100E500061E080E490E04FD38FB78A83F8949A8161
:100E6000E0E5F0E080818E7F80839FBF0F900F9040
:100E7000DF91CF910895CF93DF931F92CDB7DEB767
:100E80009FB79983F8949981E82FF0E0E059FF4FDC
:100E900060958081682360839FBF0F90DF91CF9121
:100EA000089580933020909331200895DC01E42F41
:100EB000F0E0AF0180E8689F400D511D1124E091E2
:100EC0003020F0913120E40FF51F8D918193215056
:100ED000E1F7089520E8829FC0011124860F911D3B
:100EE000E0913020F0913120E80FF91F4083089500
:100EF00020E8829FC0011124860F911DE0913020CF
:100F0000F0913120E80FF91F80810895FF920F932F
:100F10001F93CF93DF93E42FF0E0E80FF11DE1384A
:100F2000F1051CF0C0E84C2F481B442309F456C0BF
:100F3000D62FD695D695D695ED2FF0E0F195E19583
:100F4000F109EE0FFF1FEE0FFF1FEE0FFF1FDF0176
:100F5000A60FB11DBD01E1E0F0E0DF0102C0AA0F64
:100F6000BB1F6A95E2F7FA2E213021F0A0F0223063
:100F700029F134C0C42F1FEF180F012F0C0F602F61
:100F80008D2FD6D1482F4F2920E0602F8D2F36D1BD
:100F9000C15099F723C0C42F1FEF180FFA2EF094F9
:100FA000012F0C0F602F8D2FC3D1482F4F2120E030
:100FB000602F8D2F23D1C15099F710C0C42F1FEF80
:100FC000180F012F0C0F602F8D2FB2D1482F4F25F6
:100FD00020E0602F8D2F12D1C15099F7DF91CF9172
:100FE0001F910F91FF900895FF920F931F93CF933E
:100FF000DF93222369F0C22FF42E182FDFEFD60FD4
:101000006D2F6C0F202F4F2D812F80DFC150C1F726
:10101000DF91CF911F910F91FF900895BF92CF92D2
:10102000DF92EF92FF920F931F93CF93DF938C0188
:10103000D62FDC011196CC901197C694C694C69415
:10104000B42EB694B694B69412968C91882331F04F
:10105000813009F046C0C11026C043C0C1102AC06B
:1010600040C0C0E0DB2CDE0C9E9DF0019F9DF00D8A
:101070001124EC0FF11DD80113964D915C9114973A
:10108000E40FF51F44916C2F6D0F20E08D2DB6D02D
:10109000CF5FF8019081C91738F3FFEFEF1AFF0A0D
:1010A000EC1418F01EC0E12CF12CD8019C91911188
:1010B000D8CFF3CFE12CF12CF80120816B2D6E0DF0
:1010C0002E9DC0012F9D900D11240380F481E02DF1
:1010D0004D2F8E0F9F1F34D0FFEFEF1AFF0AEC1435
:1010E00058F3DF91CF911F910F91FF90EF90DF9018
:1010F000CF90BF9008951F93CF93DF931F92CDB7EA
:10110000DEB7182F88E18983BE016F5F7F4F80ECC7
:1011100098E082D181E0809326071093C30880E095
:1011200090E0019685339105E1F7BE016F5F7F4F37
:1011300080EC98E087D10F90DF91CF911F910895B7
:101140009F92AF92BF92CF92DF92EF92FF920F9356
:101150001F93CF93DF931F92CDB7DEB76C01162F8D
:10116000042FF22EA3DE812F8770806BC4DF802FC7
:101170008F7782958F708061BEDF802F8F70BBDF8D
:1011800086012FEF2F0D30E02F5F3F4FC20ED31E91
:101190000F2EF8E19F2EF02D0F2EF0E2AF2EF7E08C
:1011A000BF2EF02DEE24E394F801F1908F01998287
:1011B000BE016F5F7F4F80EC98E02ED1F501E58294
:1011C000F092C30880E090E0019685339105E1F745
:1011D000BE016F5F7F4F80EC98E034D10C151D0588
:1011E00019F70F90DF91CF911F910F91FF90EF9022
:1011F000DF90CF90BF90AF909F900895FF920F9394
:101200001F93CF93DF931F92CDB7DEB7182F062F12
:10121000F42E211103C06CDE8F1551F14F2D602F7C
:10122000812F58DE812F8770806B65DF802F8F774D
:1012300082958F7080615FDF802F8F705CDF88E127
:101240008983BE016F5F7F4F80EC98E0E5D081E03D
:1012500080932507F092C30880E090E001968533E3
:101260009105E1F7BE016F5F7F4F80EC98E0EAD017
:101270000F90DF91CF911F910F91FF900895CF9321
:10128000DF9382E390E20DDE56DD80E434DFD0E0D0
:101290000BC021E040E06C2F8D2FB0DFCF5FC03856
:1012A000C1F7DF5FD43011F0C0E0F3CFDF91CF9111
:1012B0000895FF920F931F93CF93DF93882394F1A8
:1012C000603280F5D42FC82FF62EF694F694F6945B
:1012D0002F2D30E0319521953109220F331F220F38
:1012E000331F220F331F260F311D61E070E08B0189
:1012F00002C0000F111F2A95E2F7682F8F2DF8DD2D
:10130000D13021F028F0D23039F007C0802B05C051
:10131000602F6095862301C0802720E0482F6C2F26
:101320008F2D6CDFDF91CF911F910F91FF9008956A
:10133000DFCD0895CF93DF93FC01709620E030E07D
:10134000C62FD0E0DE01022E02C0B595A7950A9403
:10135000E2F7A0FD50832F5F3F4F319628303105D3
:1013600089F740FF0AC041FF03C0FC01658302C04A
:10137000FC016683FC01618302C0FC016283DF9192
:10138000CF9108950F931F93CF93DF93EC018C01BE
:10139000C03C88E0D80721F468E083E06CDD10C031
:1013A000C03C89E0D80721F468E084E064DD0EC029
:1013B000C03C8AE0D80721F468E085E05CDD06C027
:1013C000003C1B4019F468E086E055DD88818061AF
:1013D0008883DF91CF911F910F910895EF92FF9233
:1013E0000F931F93CF937C01C42FB901A80100E094
:1013F00018E428EE31E085D0882344F0F70190818D
:10140000CC0FCC0FCC70937FC92BC083CF911F9191
:101410000F91FF90EF900895FB018081E82FE695F2
:10142000E695E69540E2E49FF0011124FA5F8770AB
:1014300021E030E0A90102C0440F551F8A95E2F770
:1014400046830895FB018081E82FE695E695E695B1
:1014500040E2E49FF0011124FA5F877021E030E060
:10146000A90102C0440F551F8A95E2F745830895EC
:1014700043E050E068E080EC97E05CDF40E058E15A
:1014800064E080EC97E056DF40E05BE164E080E2FE
:1014900097E050DF40E05BE168E080E096E04ADF03
:1014A00040E05BE160E880E096E044DF43E050E04C
:1014B00061E080E297E03EDF43E050E068E080E2F8
:1014C00097E038DF43E050E061E080E696E032DF0D
:1014D00043E050E060E280E496E02CDF43E050E03F
:1014E00060E880E496E026DF43E050E060E180E4DD
:1014F00096E020CF08951BBEFC0128ED24BF608339
:101500000895CF92DF92EF92FF920F931F93CF93A4
:10151000DF93EC016A017B01DB01CA010197A1099C
:10152000B109BC01CD01600F711F821F931FA7017C
:10153000960114D22138310541055105F8F42134C2
:1015400060F4213260F4213160F4293060F42530F8
:1015500060F4233060F480E80BC083E009C082E0CF
:1015600007C082E805C081E003C081E801C080E0D7
:1015700098819C77982B988381E001C08FEFDF9151
:10158000CF911F910F91FF90EF90DF90CF90089532
:101590001F920F920FB60F92112408B60F9218BE29
:1015A00009B60F9219BE0BB60F921BBE2F933F9335
:1015B0004F935F936F937F938F939F93AF93BF935B
:1015C000EF93FF93F89480E090E00196853520ED4D
:1015D0009207D9F742E352E266E288E392E2CBD97E
:1015E000809128078B6F8F3F49F0E0E2F7E080851C
:1015F0008B6F8F3FE1F780E090E002C080E090E0E9
:101600000196853520ED9207D9F781E080932C076C
:101610007894FF91EF91BF91AF919F918F917F91BE
:101620006F915F914F913F912F910F900BBE0F9053
:1016300009BE0F9008BE0F900FBE0F901F90189517
:101640001F920F920FB60F92112408B60F9218BE78
:1016500009B60F9219BE0BB60F921BBE2F933F9384
:101660004F935F936F937F938F939F93AF93BF93AA
:10167000EF93FF93F89480E090E00196853520ED9C
:101680009207D9F742E352E268E288E392E273D923
:1016900080910806876F8F3F49F0E0E0F6E0808593
:1016A000876F8F3FE1F780E090E002C080E090E03C
:1016B0000196853520ED9207D9F781E080930C06DD
:1016C0007894FF91EF91BF91AF919F918F917F910E
:1016D0006F915F914F913F912F910F900BBE0F90A3
:1016E00009BE0F9008BE0F900FBE0F901F90189567
:1016F0001F920F920FB60F92112408B60F9218BEC8
:1017000009B60F9219BE0BB60F921BBE2F933F93D3
:101710004F935F936F937F938F939F93AF93BF93F9
:10172000EF93FF93F89480E090E00196853520EDEB
:101730009207D9F742E352E26DE088E392E21BD9C7
:101740008D3F19F481E080934222809108068F67D3
:101750008F3F49F0E0E0F6E080858F678F3FE1F74B
:1017600080E090E002C080E090E00196853520EDB9
:101770009207D9F782E080930C067894FF91EF915D
:10178000BF91AF919F918F917F916F915F914F9199
:101790003F912F910F900BBE0F9009BE0F9008BE86
:1017A0000F900FBE0F901F9018950F931F93CF931C
:1017B000DF93CDB7DEB7EC97CDBFDEBFF89400E086
:1017C00020E240E860E080E00FDCE0913222F0911E
:1017D0003322EE0FFF1FEF5EFF4D20813181F901B3
:1017E0008491882369F09E2F921BA3E3B0E0AC0F95
:1017F000BD1FA90FB11D8C93319684918111F3CF38
:10180000E2E3F2E224813581828193813F932F9339
:101810009F938F93CE01C3969F938F9389E190E21C
:101820009F938F938E010F5F1F4F1F930F93EED0E7
:101830002AE030E240E060E0C801E1D9CDBFDEBF80
:101840008BEA92ECA2EAB0E00197A109B109E1F7B5
:101850007894EC96CDBFDEBFDF91CF911F910F91B1
:101860000895CF93DF93CDB7DEB7E697CDBFDEBF48
:10187000FFDDCCDA04DD00E020E240E860E080E05B
:10188000B3DB87E08093A200E0E2F7E082E08187AB
:1018900094E09287E0E0F6E0818788E082878185A6
:1018A0008860818780E883877894C12C0F2EF3E0CD
:1018B000EF2EF12CF02D00E010E021E130E24BECB6
:1018C00054E060E0CE0185960E948E030F2EF7ED66
:1018D000EF2EFF24FA94F02D04EC1FEF20E030E00F
:1018E00042EC54E061E0CE0143960E948E030F2E3D
:1018F000F8EEEF2EFEE4FF2EF02D0FE11EE420E0C7
:1019000030E048EB54E061E0CE0101960E948E0386
:1019100088E392E20E94AD0368E372E2CE0185960D
:101920000E94B40368E372E2CE0143960E94B403BE
:1019300068E372E2CE0101960E94B40388E392E26A
:101940000E94E703809142228823E1F31092422211
:101950002CDF88E392E20E94E703F4CFA1E21A2E83
:10196000AA1BBB1BFD010DC0AA1FBB1FEE1FFF1F43
:10197000A217B307E407F50720F0A21BB30BE40B93
:10198000F50B661F771F881F991F1A9469F76095DA
:101990007095809590959B01AC01BD01CF01089594
:1019A0000F931F93CF93DF93CDB7DEB72E97CDBFA5
:1019B000DEBF0E891F89888D998D26E02C830983CF
:1019C0001A8397FF02C080E090E801978D839E8381
:1019D000AE01445E5F4F6A8D7B8DCE0101963FD094
:1019E0004D815E8157FD0AC02F813885421753070C
:1019F0000CF49A01F801E20FF31F10822E96CDBF6E
:101A0000DEBFDF91CF911F910F9108950F931F9328
:101A1000CF93DF93CDB7DEB72E97CDBFDEBF0E8954
:101A20001F8986E08C8309831A838FEF9FE78D835C
:101A30009E83AE01465E5F4F688D798DCE01019623
:101A40000ED02F813885F801E20FF31F10822E96F9
:101A5000CDBFDEBFDF91CF911F910F9108952F92DF
:101A60003F924F925F926F927F928F929F92AF922E
:101A7000BF92CF92DF92EF92FF920F931F93CF937B
:101A8000DF93CDB7DEB72C97CDBFDEBF7C016B01F6
:101A90008A01FC0116821782838181FFB0C1CE01C9
:101AA00001964C01F7019381F60193FD859193FF17
:101AB00081916F01882309F49EC1853239F493FD29
:101AC000859193FF81916F01853221F4B70190E0F8
:101AD000C4D1E8CF512C312C20E02032A0F48B323D
:101AE00069F030F4803259F0833269F420612CC0FF
:101AF0008D3239F0803339F4216026C022602460B1
:101B000023C0286021C027FD27C030ED380F3A30B0
:101B100078F426FF06C0FAE05F9E300D1124532EA4
:101B200013C08AE0389E300D1124332E20620CC081
:101B30008E3221F426FD5FC1206406C08C3611F47C
:101B4000206802C0883641F4F60193FD859193FF29
:101B500081916F018111C1CF982F9F7D9554933052
:101B600028F40C5F1F4FFFE3F9830DC0833631F07B
:101B7000833771F0833509F057C021C0F8018081A7
:101B800089830E5F1F4F44244394512C540114C089
:101B90003801F2E06F0E711CF801A080B18026FFC1
:101BA00003C0652D70E002C06FEF7FEFC5012C8789
:101BB00049D12C0183012C852F77222E16C03801A4
:101BC000F2E06F0E711CF801A080B18026FF03C007
:101BD000652D70E002C06FEF7FEFC5012C8727D124
:101BE0002C012C852068222E830123FC19C0832D13
:101BF00090E048165906A0F4B70180E290E02DD19C
:101C00003A94F5CFF50127FC859127FE81915F017C
:101C1000B70190E022D131103A94F1E04F1A510807
:101C20004114510479F7DEC0843611F0893631F55C
:101C3000F80127FF07C060817181828193810C5F69
:101C40001F4F08C060817181072E000C880B990B13
:101C50000E5F1F4F2F76722E97FF09C090958095CB
:101C6000709561957F4F8F4F9F4F2068722E2AE0AD
:101C700030E0A4012AD1A82EA81843C0853729F442
:101C80002F7EB22E2AE030E025C0F22FF97FBF2E42
:101C90008F36C1F018F4883579F0ADC0803719F06F
:101CA000883721F0A8C02F2F2061B22EB4FE0DC0BE
:101CB0008B2D8460B82E09C024FF0AC09F2F966028
:101CC000B92E06C028E030E005C020E130E002C0B7
:101CD00020E132E0F801B7FE07C0608171818281A6
:101CE00093810C5F1F4F06C06081718180E090E09E
:101CF0000E5F1F4FA401E9D0A82EA818FB2DFF7777
:101D00007F2E76FE0BC0372D3E7FA51450F474FE57
:101D10000AC072FC08C0372D3E7E05C0BA2C372D94
:101D200003C0BA2C01C0B52C34FF0DC0FE01EA0D72
:101D3000F11D8081803311F4397E09C032FF06C065
:101D4000B394B39404C0832F867809F0B39433FD21
:101D500012C030FF06C05A2CB31418F4530C5B1891
:101D6000B32CB31460F4B70180E290E03C8775D0E7
:101D7000B3943C85F6CFB31410F43B1801C0312C5A
:101D800034FF11C0B70180E390E03C8766D03C850A
:101D900032FF16C031FD03C088E790E002C088E53D
:101DA00090E0B7010CC0832F867851F031FF02C05C
:101DB0008BE201C080E237FD8DE2B70190E04DD0AB
:101DC000A51430F4B70180E390E047D05A94F8CFDF
:101DD000AA94F401EA0DF11D8081B70190E03DD095
:101DE000A110F6CF332009F45DCEB70180E290E078
:101DF00034D03A94F7CFF7018681978102C08FEFF4
:101E00009FEF2C96CDBFDEBFDF91CF911F910F9139
:101E1000FF90EF90DF90CF90BF90AF909F908F900A
:101E20007F906F905F904F903F902F900895FC01AE
:101E30000590615070400110D8F7809590958E0FF5
:101E40009F1F0895FC016150704001900110D8F768
:101E5000809590958E0F9F1F08950F931F93CF939A
:101E6000DF93FB01238121FD03C08FEF9FEF28C08B
:101E700022FF16C0468157812481358142175307BE
:101E800044F4A081B1819D012F5F3F4F20833183B6
:101E90008C93268137812F5F3F4F2683378310C075
:101EA000EB01092F182F0084F185E02D1995892B5E
:101EB000E1F68E819F8101968E839F83812F902FE3
:101EC000DF91CF911F910F910895FA01AA27283031
:101ED00051F1203181F1E8946F936E7F6E5F7F4FF7
:101EE0008F4F9F4FAF4FB1E03ED0B4E03CD0670F73
:101EF000781F891F9A1FA11D680F791F8A1F911DC6
:101F0000A11D6A0F711D811D911DA11D20D009F415
:101F100068943F912AE0269F11243019305D319357
:101F2000DEF6CF010895462F4770405D4193B3E040
:101F30000FD0C9F7F6CF462F4F70405D4A3318F0E7
:101F4000495D31FD4052419302D0A9F7EACFB4E098
:101F5000A6959795879577956795BA95C9F7009750
:101F60006105710508959B01AC010A2E06945795F1
:101F7000479537952795BA95C9F7620F731F841F48
:0A1F8000951FA01D0895F894FFCFEF
:101F8A00040801FC010408010002000402060720FB
:101F9A007DB104A8049F049604526573756C74207D
:101FAA0069733A0D0A25730A25640D0A256400002F
:00000001FF
